{
  "_format": "hh3-artifact-1",
  "contractName": "MxNFTAuction",
  "sourceName": "contracts/MxNFTAuction.sol",
  "abi": [
    {
      "inputs": [
        {
          "internalType": "address",
          "name": "target",
          "type": "address"
        }
      ],
      "name": "AddressEmptyCode",
      "type": "error"
    },
    {
      "inputs": [
        {
          "internalType": "address",
          "name": "implementation",
          "type": "address"
        }
      ],
      "name": "ERC1967InvalidImplementation",
      "type": "error"
    },
    {
      "inputs": [],
      "name": "ERC1967NonPayable",
      "type": "error"
    },
    {
      "inputs": [],
      "name": "FailedCall",
      "type": "error"
    },
    {
      "inputs": [],
      "name": "InvalidInitialization",
      "type": "error"
    },
    {
      "inputs": [],
      "name": "NotInitializing",
      "type": "error"
    },
    {
      "inputs": [
        {
          "internalType": "address",
          "name": "owner",
          "type": "address"
        }
      ],
      "name": "OwnableInvalidOwner",
      "type": "error"
    },
    {
      "inputs": [
        {
          "internalType": "address",
          "name": "account",
          "type": "address"
        }
      ],
      "name": "OwnableUnauthorizedAccount",
      "type": "error"
    },
    {
      "inputs": [],
      "name": "ReentrancyGuardReentrantCall",
      "type": "error"
    },
    {
      "inputs": [],
      "name": "UUPSUnauthorizedCallContext",
      "type": "error"
    },
    {
      "inputs": [
        {
          "internalType": "bytes32",
          "name": "slot",
          "type": "bytes32"
        }
      ],
      "name": "UUPSUnsupportedProxiableUUID",
      "type": "error"
    },
    {
      "anonymous": false,
      "inputs": [
        {
          "indexed": true,
          "internalType": "uint256",
          "name": "auctionId",
          "type": "uint256"
        },
        {
          "indexed": false,
          "internalType": "address",
          "name": "winner",
          "type": "address"
        },
        {
          "indexed": false,
          "internalType": "uint256",
          "name": "price",
          "type": "uint256"
        }
      ],
      "name": "AuctionSettled",
      "type": "event"
    },
    {
      "anonymous": false,
      "inputs": [
        {
          "indexed": true,
          "internalType": "uint256",
          "name": "auctionId",
          "type": "uint256"
        },
        {
          "indexed": true,
          "internalType": "address",
          "name": "seller",
          "type": "address"
        },
        {
          "indexed": false,
          "internalType": "address",
          "name": "nft",
          "type": "address"
        },
        {
          "indexed": false,
          "internalType": "uint256",
          "name": "nftId",
          "type": "uint256"
        },
        {
          "indexed": false,
          "internalType": "uint256",
          "name": "endTime",
          "type": "uint256"
        }
      ],
      "name": "AuctionStarted",
      "type": "event"
    },
    {
      "anonymous": false,
      "inputs": [
        {
          "indexed": true,
          "internalType": "uint256",
          "name": "auctionId",
          "type": "uint256"
        },
        {
          "indexed": true,
          "internalType": "address",
          "name": "bidder",
          "type": "address"
        },
        {
          "indexed": false,
          "internalType": "uint256",
          "name": "amount",
          "type": "uint256"
        }
      ],
      "name": "BidPlaced",
      "type": "event"
    },
    {
      "anonymous": false,
      "inputs": [
        {
          "indexed": false,
          "internalType": "uint64",
          "name": "version",
          "type": "uint64"
        }
      ],
      "name": "Initialized",
      "type": "event"
    },
    {
      "anonymous": false,
      "inputs": [
        {
          "indexed": true,
          "internalType": "address",
          "name": "previousOwner",
          "type": "address"
        },
        {
          "indexed": true,
          "internalType": "address",
          "name": "newOwner",
          "type": "address"
        }
      ],
      "name": "OwnershipTransferred",
      "type": "event"
    },
    {
      "anonymous": false,
      "inputs": [
        {
          "indexed": true,
          "internalType": "address",
          "name": "implementation",
          "type": "address"
        }
      ],
      "name": "Upgraded",
      "type": "event"
    },
    {
      "anonymous": false,
      "inputs": [
        {
          "indexed": true,
          "internalType": "uint256",
          "name": "auctionId",
          "type": "uint256"
        },
        {
          "indexed": true,
          "internalType": "address",
          "name": "bidder",
          "type": "address"
        },
        {
          "indexed": false,
          "internalType": "uint256",
          "name": "amount",
          "type": "uint256"
        }
      ],
      "name": "Withdrawn",
      "type": "event"
    },
    {
      "inputs": [],
      "name": "UPGRADE_INTERFACE_VERSION",
      "outputs": [
        {
          "internalType": "string",
          "name": "",
          "type": "string"
        }
      ],
      "stateMutability": "view",
      "type": "function"
    },
    {
      "inputs": [],
      "name": "auctionCount",
      "outputs": [
        {
          "internalType": "uint256",
          "name": "",
          "type": "uint256"
        }
      ],
      "stateMutability": "view",
      "type": "function"
    },
    {
      "inputs": [
        {
          "internalType": "uint256",
          "name": "",
          "type": "uint256"
        }
      ],
      "name": "auctions",
      "outputs": [
        {
          "internalType": "contract IERC721",
          "name": "nft",
          "type": "address"
        },
        {
          "internalType": "uint256",
          "name": "nftId",
          "type": "uint256"
        },
        {
          "internalType": "address payable",
          "name": "seller",
          "type": "address"
        },
        {
          "internalType": "enum MxNFTAuction.PaymentType",
          "name": "paymentType",
          "type": "uint8"
        },
        {
          "internalType": "contract IERC20",
          "name": "paymentToken",
          "type": "address"
        },
        {
          "internalType": "uint256",
          "name": "endTime",
          "type": "uint256"
        },
        {
          "internalType": "uint256",
          "name": "startingPrice",
          "type": "uint256"
        },
        {
          "internalType": "address",
          "name": "highestBidder",
          "type": "address"
        },
        {
          "internalType": "uint256",
          "name": "highestBid",
          "type": "uint256"
        },
        {
          "internalType": "uint256",
          "name": "highestBidInDollar",
          "type": "uint256"
        },
        {
          "internalType": "bool",
          "name": "settled",
          "type": "bool"
        }
      ],
      "stateMutability": "view",
      "type": "function"
    },
    {
      "inputs": [
        {
          "internalType": "uint256",
          "name": "auctionId",
          "type": "uint256"
        },
        {
          "internalType": "uint256",
          "name": "amount",
          "type": "uint256"
        }
      ],
      "name": "bidERC20",
      "outputs": [],
      "stateMutability": "nonpayable",
      "type": "function"
    },
    {
      "inputs": [
        {
          "internalType": "uint256",
          "name": "auctionId",
          "type": "uint256"
        }
      ],
      "name": "bidETH",
      "outputs": [],
      "stateMutability": "payable",
      "type": "function"
    },
    {
      "inputs": [
        {
          "internalType": "enum MxNFTAuction.PaymentType",
          "name": "paymentType",
          "type": "uint8"
        }
      ],
      "name": "getPriceDecimals",
      "outputs": [
        {
          "internalType": "uint8",
          "name": "",
          "type": "uint8"
        }
      ],
      "stateMutability": "view",
      "type": "function"
    },
    {
      "inputs": [
        {
          "internalType": "enum MxNFTAuction.PaymentType",
          "name": "paymentType",
          "type": "uint8"
        }
      ],
      "name": "getPriceInDollar",
      "outputs": [
        {
          "internalType": "uint256",
          "name": "",
          "type": "uint256"
        }
      ],
      "stateMutability": "view",
      "type": "function"
    },
    {
      "inputs": [
        {
          "internalType": "address",
          "name": "owner",
          "type": "address"
        }
      ],
      "name": "initialize",
      "outputs": [],
      "stateMutability": "nonpayable",
      "type": "function"
    },
    {
      "inputs": [
        {
          "internalType": "address",
          "name": "",
          "type": "address"
        },
        {
          "internalType": "address",
          "name": "",
          "type": "address"
        },
        {
          "internalType": "uint256",
          "name": "",
          "type": "uint256"
        },
        {
          "internalType": "bytes",
          "name": "",
          "type": "bytes"
        }
      ],
      "name": "onERC721Received",
      "outputs": [
        {
          "internalType": "bytes4",
          "name": "",
          "type": "bytes4"
        }
      ],
      "stateMutability": "pure",
      "type": "function"
    },
    {
      "inputs": [],
      "name": "owner",
      "outputs": [
        {
          "internalType": "address",
          "name": "",
          "type": "address"
        }
      ],
      "stateMutability": "view",
      "type": "function"
    },
    {
      "inputs": [
        {
          "internalType": "uint256",
          "name": "",
          "type": "uint256"
        },
        {
          "internalType": "address",
          "name": "",
          "type": "address"
        }
      ],
      "name": "pendingReturns",
      "outputs": [
        {
          "internalType": "uint256",
          "name": "",
          "type": "uint256"
        }
      ],
      "stateMutability": "view",
      "type": "function"
    },
    {
      "inputs": [
        {
          "internalType": "enum MxNFTAuction.PaymentType",
          "name": "",
          "type": "uint8"
        }
      ],
      "name": "priceFeeds",
      "outputs": [
        {
          "internalType": "address",
          "name": "",
          "type": "address"
        }
      ],
      "stateMutability": "view",
      "type": "function"
    },
    {
      "inputs": [],
      "name": "proxiableUUID",
      "outputs": [
        {
          "internalType": "bytes32",
          "name": "",
          "type": "bytes32"
        }
      ],
      "stateMutability": "view",
      "type": "function"
    },
    {
      "inputs": [],
      "name": "renounceOwnership",
      "outputs": [],
      "stateMutability": "nonpayable",
      "type": "function"
    },
    {
      "inputs": [
        {
          "internalType": "enum MxNFTAuction.PaymentType",
          "name": "t",
          "type": "uint8"
        },
        {
          "internalType": "address",
          "name": "feed",
          "type": "address"
        }
      ],
      "name": "setPriceFeed",
      "outputs": [],
      "stateMutability": "nonpayable",
      "type": "function"
    },
    {
      "inputs": [
        {
          "internalType": "uint256",
          "name": "auctionId",
          "type": "uint256"
        }
      ],
      "name": "settle",
      "outputs": [],
      "stateMutability": "nonpayable",
      "type": "function"
    },
    {
      "inputs": [
        {
          "internalType": "address",
          "name": "nft",
          "type": "address"
        },
        {
          "internalType": "uint256",
          "name": "nftId",
          "type": "uint256"
        },
        {
          "internalType": "enum MxNFTAuction.PaymentType",
          "name": "paymentType",
          "type": "uint8"
        },
        {
          "internalType": "address",
          "name": "paymentToken",
          "type": "address"
        },
        {
          "internalType": "uint256",
          "name": "startingPrice",
          "type": "uint256"
        },
        {
          "internalType": "uint256",
          "name": "duration",
          "type": "uint256"
        }
      ],
      "name": "startAuction",
      "outputs": [
        {
          "internalType": "uint256",
          "name": "",
          "type": "uint256"
        }
      ],
      "stateMutability": "nonpayable",
      "type": "function"
    },
    {
      "inputs": [
        {
          "internalType": "address",
          "name": "newOwner",
          "type": "address"
        }
      ],
      "name": "transferOwnership",
      "outputs": [],
      "stateMutability": "nonpayable",
      "type": "function"
    },
    {
      "inputs": [
        {
          "internalType": "address",
          "name": "newImplementation",
          "type": "address"
        },
        {
          "internalType": "bytes",
          "name": "data",
          "type": "bytes"
        }
      ],
      "name": "upgradeToAndCall",
      "outputs": [],
      "stateMutability": "payable",
      "type": "function"
    },
    {
      "inputs": [
        {
          "internalType": "uint256",
          "name": "auctionId",
          "type": "uint256"
        }
      ],
      "name": "withdraw",
      "outputs": [],
      "stateMutability": "nonpayable",
      "type": "function"
    }
  ],
  "bytecode": "0x60a0604052306080523480156012575f5ffd5b5060015f5560805161213561003d5f395f818161156a01528181611593015261177301526121355ff3fe60806040526004361061011b575f3560e01c806380d92af31161009d578063ad3cb1cc11610062578063ad3cb1cc146103e1578063c4d66de81461041e578063de8419911461043d578063f2fde38b1461045c578063fd3c4cbf1461047b575f5ffd5b806380d92af31461031257806381031fa1146103315780638da5cb5b146103505780638ddac1ef1461038c5780638df82800146103c2575f5ffd5b80634f1ef286116100e35780634f1ef2861461022957806351afa3af1461023c57806352d1902d1461024f578063571a26a014610263578063715018a6146102fe575f5ffd5b8063150b7a021461011f5780632a6a7a07146101685780632ad71573146101b45780632e1a7d4d146101d757806345e8ba0e146101f8575b5f5ffd5b34801561012a575f5ffd5b5061014a610139366004611aed565b630a85bd0160e11b95945050505050565b6040516001600160e01b031990911681526020015b60405180910390f35b348015610173575f5ffd5b5061019c610182366004611b90565b60046020525f90815260409020546001600160a01b031681565b6040516001600160a01b03909116815260200161015f565b3480156101bf575f5ffd5b506101c960015481565b60405190815260200161015f565b3480156101e2575f5ffd5b506101f66101f1366004611ba9565b61049a565b005b348015610203575f5ffd5b50610217610212366004611b90565b6106dc565b60405160ff909116815260200161015f565b6101f6610237366004611bd4565b61078d565b6101f661024a366004611ba9565b6107ac565b34801561025a575f5ffd5b506101c9610990565b34801561026e575f5ffd5b506102e761027d366004611ba9565b600260208190525f918252604090912080546001820154928201546003830154600484015460058501546006860154600787015460088801546009909801546001600160a01b0397881699988789169860ff600160a01b909904891698978116979416939091168b565b60405161015f9b9a99989796959493929190611cac565b348015610309575f5ffd5b506101f66109ab565b34801561031d575f5ffd5b506101c961032c366004611d51565b6109be565b34801561033c575f5ffd5b506101c961034b366004611b90565b610c63565b34801561035b575f5ffd5b507f9016d09d72d40fdae2fd8ceac6b6234c7706214fd39c1cd1e609a0528c199300546001600160a01b031661019c565b348015610397575f5ffd5b506101c96103a6366004611dac565b600360209081525f928352604080842090915290825290205481565b3480156103cd575f5ffd5b506101f66103dc366004611ba9565b610d1b565b3480156103ec575f5ffd5b50610411604051806040016040528060058152602001640352e302e360dc1b81525081565b60405161015f9190611dd6565b348015610429575f5ffd5b506101f6610438366004611e0b565b6110ac565b348015610448575f5ffd5b506101f6610457366004611e24565b6111ad565b348015610467575f5ffd5b506101f6610476366004611e0b565b611208565b348015610486575f5ffd5b506101f6610495366004611e4c565b611242565b6104a2611537565b5f818152600360209081526040808320338452909152902054806105035760405162461bcd60e51b81526020600482015260136024820152726e6f7468696e6720746f20776974686472617760681b60448201526064015b60405180910390fd5b5f828152600360209081526040808320338452825280832083905584835260029091528120906002820154600160a01b900460ff16600181111561054957610549611c98565b036105df576040515f90339084908381818185875af1925050503d805f811461058d576040519150601f19603f3d011682016040523d82523d5f602084013e610592565b606091505b50509050806105d95760405162461bcd60e51b8152602060048201526013602482015272115512081d1c985b9cd9995c8819985a5b1959606a1b60448201526064016104fa565b50610697565b600381015460405163a9059cbb60e01b8152336004820152602481018490526001600160a01b039091169063a9059cbb906044016020604051808303815f875af115801561062f573d5f5f3e3d5ffd5b505050506040513d601f19601f820116820180604052508101906106539190611e6c565b6106975760405162461bcd60e51b8152602060048201526015602482015274115490cc8c081d1c985b9cd9995c8819985a5b1959605a1b60448201526064016104fa565b604051828152339084907fcf7d23a3cbe4e8b36ff82fd1b05b1b17373dc7804b4ebbd6e2356716ef2023729060200160405180910390a350506106d960015f55565b50565b5f5f60045f8460018111156106f3576106f3611c98565b600181111561070457610704611c98565b81526020019081526020015f205f9054906101000a90046001600160a01b03169050806001600160a01b031663313ce5676040518163ffffffff1660e01b8152600401602060405180830381865afa158015610762573d5f5f3e3d5ffd5b505050506040513d601f19601f820116820180604052508101906107869190611e8b565b9392505050565b61079561155f565b61079e82611603565b6107a8828261160b565b5050565b6107b4611537565b5f81815260026020819052604090912090810154600160a01b900460ff1660018111156107e3576107e3611c98565b156108225760405162461bcd60e51b815260206004820152600f60248201526e3737ba1032ba341030bab1ba34b7b760891b60448201526064016104fa565b806004015442106108655760405162461bcd60e51b815260206004820152600d60248201526c185d58dd1a5bdb88195b991959609a1b60448201526064016104fa565b60078101541561087b5780600701543411610884565b80600501543410155b6108be5760405162461bcd60e51b815260206004820152600b60248201526a62696420746f6f206c6f7760a81b60448201526064016104fa565b60068101546001600160a01b0316156109115760078101545f83815260036020908152604080832060068601546001600160a01b031684529091528120805490919061090b908490611ebf565b90915550505b6006810180546001600160a01b03191633179055346007820181905561094a90601261093c5f610c63565b6109455f6106dc565b6116cc565b6008820155604051348152339083907f0e54eff26401bf69b81b26f60bd85ef47f5d85275c1d268d84f68d6897431c479060200160405180910390a3506106d960015f55565b5f610999611768565b505f5160206120e05f395f51905f5290565b6109b36117b1565b6109bc5f61180c565b565b5f603c821015610a055760405162461bcd60e51b8152602060048201526012602482015271191d5c985d1a5bdb881d1bdbc81cda1bdc9d60721b60448201526064016104fa565b604051632142170760e11b81526001600160a01b038816906342842e0e90610a3590339030908b90600401611ed2565b5f604051808303815f87803b158015610a4c575f5ffd5b505af1158015610a5e573d5f5f3e3d5ffd5b5050600180545f9350915082610a7383611ef6565b919050559050604051806101600160405280896001600160a01b03168152602001888152602001336001600160a01b03168152602001876001811115610abb57610abb611c98565b81526001600160a01b0387166020820152604001610ad98542611ebf565b815260208082018790525f604080840182905260608085018390526080850183905260a0909401829052858252600280845291819020855181546001600160a01b039182166001600160a01b0319918216178355948701516001838101919091559287015193820180549490911694841685178155948601519094909390926001600160a81b0319161790600160a01b908490811115610b7b57610b7b611c98565b021790555060808201516003820180546001600160a01b039283166001600160a01b03199182161790915560a0840151600484015560c0840151600584015560e084015160068401805491909316911617905561010082015160078201556101208201516008820155610140909101516009909101805491151560ff1990921691909117905533817f3ed4e40af7bb642d2987461105fb1c1c8bb984fe6f41d0c694e7f727cb5b41be8a8a610c308842611ebf565b604080516001600160a01b03909416845260208401929092529082015260600160405180910390a3979650505050505050565b5f5f60045f846001811115610c7a57610c7a611c98565b6001811115610c8b57610c8b611c98565b81526020019081526020015f205f9054906101000a90046001600160a01b031690505f816001600160a01b031663feaf968c6040518163ffffffff1660e01b815260040160a060405180830381865afa158015610cea573d5f5f3e3d5ffd5b505050506040513d601f19601f82011682018060405250810190610d0e9190611f27565b5091979650505050505050565b610d23611537565b5f8181526002602052604090206004810154421015610d785760405162461bcd60e51b8152602060048201526011602482015270185d58dd1a5bdb881b9bdd08195b991959607a1b60448201526064016104fa565b600981015460ff1615610dbf5760405162461bcd60e51b815260206004820152600f60248201526e185b1c9958591e481cd95d1d1b1959608a1b60448201526064016104fa565b60098101805460ff1916600117905560068101546001600160a01b031615610fe657805460068201546001830154604051632142170760e11b81526001600160a01b03938416936342842e0e93610e1f9330939290911691600401611ed2565b5f604051808303815f87803b158015610e36575f5ffd5b505af1158015610e48573d5f5f3e3d5ffd5b505f9250610e54915050565b6002820154600160a01b900460ff166001811115610e7457610e74611c98565b03610f1d57600281015460078201546040515f926001600160a01b031691908381818185875af1925050503d805f8114610ec9576040519150601f19603f3d011682016040523d82523d5f602084013e610ece565b606091505b5050905080610f175760405162461bcd60e51b81526020600482015260156024820152741cd95b1b195c881c185e5b595b9d0819985a5b1959605a1b60448201526064016104fa565b50611052565b60038101546002820154600783015460405163a9059cbb60e01b81526001600160a01b039283166004820152602481019190915291169063a9059cbb906044016020604051808303815f875af1158015610f79573d5f5f3e3d5ffd5b505050506040513d601f19601f82011682018060405250810190610f9d9190611e6c565b610fe15760405162461bcd60e51b8152602060048201526015602482015274115490cc8c081d1c985b9cd9995c8819985a5b1959605a1b60448201526064016104fa565b611052565b805460028201546001830154604051632142170760e11b81526001600160a01b03938416936342842e0e936110249330939290911691600401611ed2565b5f604051808303815f87803b15801561103b575f5ffd5b505af115801561104d573d5f5f3e3d5ffd5b505050505b60068101546007820154604080516001600160a01b039093168352602083019190915283917fc9f72b276a388619c6d185d146697036241880c36654b1a3ffdad07c24038d99910160405180910390a2506106d960015f55565b5f6110b561187c565b805490915060ff600160401b820416159067ffffffffffffffff165f811580156110dc5750825b90505f8267ffffffffffffffff1660011480156110f85750303b155b905081158015611106575080155b156111245760405163f92ee8a960e01b815260040160405180910390fd5b845467ffffffffffffffff19166001178555831561114e57845460ff60401b1916600160401b1785555b611157866118a6565b61115f6118b7565b83156111a557845460ff60401b19168555604051600181527fc7f505b2f371ae2175ee4913f4499e1f2633a7b5936321eed1cdaeb6115181d29060200160405180910390a15b505050505050565b8060045f8460018111156111c3576111c3611c98565b60018111156111d4576111d4611c98565b81526020019081526020015f205f6101000a8154816001600160a01b0302191690836001600160a01b031602179055505050565b6112106117b1565b6001600160a01b03811661123957604051631e4fbdf760e01b81525f60048201526024016104fa565b6106d98161180c565b61124a611537565b5f82815260026020819052604090912090810154600160a01b900460ff16600181111561127957611279611c98565b6001146112bc5760405162461bcd60e51b81526020600482015260116024820152703737ba1032b93199181030bab1ba34b7b760791b60448201526064016104fa565b806004015442106112ff5760405162461bcd60e51b815260206004820152600d60248201526c185d58dd1a5bdb88195b991959609a1b60448201526064016104fa565b806007015482116113405760405162461bcd60e51b815260206004820152600b60248201526a62696420746f6f206c6f7760a81b60448201526064016104fa565b60038101546040516323b872dd60e01b81526001600160a01b03909116906323b872dd9061137690339030908790600401611ed2565b6020604051808303815f875af1158015611392573d5f5f3e3d5ffd5b505050506040513d601f19601f820116820180604052508101906113b69190611e6c565b6113fa5760405162461bcd60e51b8152602060048201526015602482015274195c98cc8c081d1c985b9cd9995c8819985a5b1959605a1b60448201526064016104fa565b60068101546001600160a01b03161561144d5760078101545f84815260036020908152604080832060068601546001600160a01b0316845290915281208054909190611447908490611ebf565b90915550505b6006810180546001600160a01b031916331790556007810182905560038101546040805163313ce56760e01b815290516114f19285926001600160a01b03919091169163313ce567916004808201926020929091908290030181865afa1580156114b9573d5f5f3e3d5ffd5b505050506040513d601f19601f820116820180604052508101906114dd9190611e8b565b6114e76001610c63565b61094560016106dc565b6008820155604051828152339084907f0e54eff26401bf69b81b26f60bd85ef47f5d85275c1d268d84f68d6897431c479060200160405180910390a3506107a860015f55565b60025f540361155957604051633ee5aeb560e01b815260040160405180910390fd5b60025f55565b306001600160a01b037f00000000000000000000000000000000000000000000000000000000000000001614806115e557507f00000000000000000000000000000000000000000000000000000000000000006001600160a01b03166115d95f5160206120e05f395f51905f52546001600160a01b031690565b6001600160a01b031614155b156109bc5760405163703e46dd60e11b815260040160405180910390fd5b6106d96117b1565b816001600160a01b03166352d1902d6040518163ffffffff1660e01b8152600401602060405180830381865afa925050508015611665575060408051601f3d908101601f1916820190925261166291810190611f75565b60015b61168d57604051634c9c8ce360e01b81526001600160a01b03831660048201526024016104fa565b5f5160206120e05f395f51905f5281146116bd57604051632a87526960e21b8152600481018290526024016104fa565b6116c783836118bf565b505050565b5f806116dc60ff8616600a61206f565b90505f816116ea868961207a565b6116f49190612091565b9050600860ff8516111561172c5761170d6008856120b0565b61171b9060ff16600a61206f565b6117259082612091565b905061175e565b600860ff8516101561175e576117438460086120b0565b6117519060ff16600a61206f565b61175b908261207a565b90505b9695505050505050565b306001600160a01b037f000000000000000000000000000000000000000000000000000000000000000016146109bc5760405163703e46dd60e11b815260040160405180910390fd5b336117e37f9016d09d72d40fdae2fd8ceac6b6234c7706214fd39c1cd1e609a0528c199300546001600160a01b031690565b6001600160a01b0316146109bc5760405163118cdaa760e01b81523360048201526024016104fa565b7f9016d09d72d40fdae2fd8ceac6b6234c7706214fd39c1cd1e609a0528c19930080546001600160a01b031981166001600160a01b03848116918217845560405192169182907f8be0079c531659141344cd1fd0a4f28419497f9722a3daafe3b4186f6b6457e0905f90a3505050565b5f807ff0c57e16840df040f15088dc2f81fe391c3923bec73e23a9662efc9c229c6a005b92915050565b6118ae611914565b6106d981611939565b6109bc611914565b6118c882611941565b6040516001600160a01b038316907fbc7cd75a20ee27fd9adebab32041f755214dbc6bffa90cc0225b39da2e5c2d3b905f90a280511561190c576116c782826119a4565b6107a8611a16565b61191c611a35565b6109bc57604051631afcd79f60e31b815260040160405180910390fd5b611210611914565b806001600160a01b03163b5f0361197657604051634c9c8ce360e01b81526001600160a01b03821660048201526024016104fa565b5f5160206120e05f395f51905f5280546001600160a01b0319166001600160a01b0392909216919091179055565b60605f5f846001600160a01b0316846040516119c091906120c9565b5f60405180830381855af49150503d805f81146119f8576040519150601f19603f3d011682016040523d82523d5f602084013e6119fd565b606091505b5091509150611a0d858383611a4e565b95945050505050565b34156109bc5760405163b398979f60e01b815260040160405180910390fd5b5f611a3e61187c565b54600160401b900460ff16919050565b606082611a6357611a5e82611aaa565b610786565b8151158015611a7a57506001600160a01b0384163b155b15611aa357604051639996b31560e01b81526001600160a01b03851660048201526024016104fa565b5092915050565b805115611ab957805160208201fd5b60405163d6bda27560e01b815260040160405180910390fd5b80356001600160a01b0381168114611ae8575f5ffd5b919050565b5f5f5f5f5f60808688031215611b01575f5ffd5b611b0a86611ad2565b9450611b1860208701611ad2565b935060408601359250606086013567ffffffffffffffff811115611b3a575f5ffd5b8601601f81018813611b4a575f5ffd5b803567ffffffffffffffff811115611b60575f5ffd5b886020828401011115611b71575f5ffd5b959894975092955050506020019190565b803560028110611ae8575f5ffd5b5f60208284031215611ba0575f5ffd5b61078682611b82565b5f60208284031215611bb9575f5ffd5b5035919050565b634e487b7160e01b5f52604160045260245ffd5b5f5f60408385031215611be5575f5ffd5b611bee83611ad2565b9150602083013567ffffffffffffffff811115611c09575f5ffd5b8301601f81018513611c19575f5ffd5b803567ffffffffffffffff811115611c3357611c33611bc0565b604051601f8201601f19908116603f0116810167ffffffffffffffff81118282101715611c6257611c62611bc0565b604052818152828201602001871015611c79575f5ffd5b816020840160208301375f602083830101528093505050509250929050565b634e487b7160e01b5f52602160045260245ffd5b6001600160a01b038c81168252602082018c90528a166040820152610160810160028a10611ce857634e487b7160e01b5f52602160045260245ffd5b896060830152611d03608083018a6001600160a01b03169052565b8760a08301528660c0830152611d2460e08301876001600160a01b03169052565b8461010083015283610120830152611d4161014083018415159052565b9c9b505050505050505050505050565b5f5f5f5f5f5f60c08789031215611d66575f5ffd5b611d6f87611ad2565b955060208701359450611d8460408801611b82565b9350611d9260608801611ad2565b9598949750929560808101359460a0909101359350915050565b5f5f60408385031215611dbd575f5ffd5b82359150611dcd60208401611ad2565b90509250929050565b602081525f82518060208401528060208501604085015e5f604082850101526040601f19601f83011684010191505092915050565b5f60208284031215611e1b575f5ffd5b61078682611ad2565b5f5f60408385031215611e35575f5ffd5b611e3e83611b82565b9150611dcd60208401611ad2565b5f5f60408385031215611e5d575f5ffd5b50508035926020909101359150565b5f60208284031215611e7c575f5ffd5b81518015158114610786575f5ffd5b5f60208284031215611e9b575f5ffd5b815160ff81168114610786575f5ffd5b634e487b7160e01b5f52601160045260245ffd5b808201808211156118a0576118a0611eab565b6001600160a01b039384168152919092166020820152604081019190915260600190565b5f60018201611f0757611f07611eab565b5060010190565b805169ffffffffffffffffffff81168114611ae8575f5ffd5b5f5f5f5f5f60a08688031215611f3b575f5ffd5b611f4486611f0e565b60208701516040880151606089015192975090955093509150611f6960808701611f0e565b90509295509295909350565b5f60208284031215611f85575f5ffd5b5051919050565b6001815b6001841115611fc757808504811115611fab57611fab611eab565b6001841615611fb957908102905b60019390931c928002611f90565b935093915050565b5f82611fdd575060016118a0565b81611fe957505f6118a0565b8160018114611fff576002811461200957612025565b60019150506118a0565b60ff84111561201a5761201a611eab565b50506001821b6118a0565b5060208310610133831016604e8410600b8410161715612048575081810a6118a0565b6120545f198484611f8c565b805f190482111561206757612067611eab565b029392505050565b5f6107868383611fcf565b80820281158282048414176118a0576118a0611eab565b5f826120ab57634e487b7160e01b5f52601260045260245ffd5b500490565b60ff82811682821603908111156118a0576118a0611eab565b5f82518060208501845e5f92019182525091905056fe360894a13ba1a3210667c828492db98dca3e2076cc3735a920a3ca505d382bbca26469706673582212206bed685461dbc852721efe4b07c56e87d72840a2cb21a93c658277bcb807b6db64736f6c634300081c0033",
  "linkReferences": {},
  "deployedLinkReferences": {},
  "immutableReferences": {
    "528": [
      {
        "length": 32,
        "start": 5482
      },
      {
        "length": 32,
        "start": 5523
      },
      {
        "length": 32,
        "start": 6003
      }
    ]
  },
  "inputSourceName": "project/contracts/MxNFTAuction.sol",
  "buildInfoId": "solc-0_8_28-ca700c44d0f379870de959e830d61d8a5ad46f00"
}