{
  "_format": "hh3-artifact-1",
  "contractName": "MxNFT",
  "sourceName": "contracts/MxNFT.sol",
  "abi": [
    {
      "inputs": [
        {
          "internalType": "string",
          "name": "name",
          "type": "string"
        },
        {
          "internalType": "string",
          "name": "symbol",
          "type": "string"
        }
      ],
      "stateMutability": "nonpayable",
      "type": "constructor"
    },
    {
      "inputs": [
        {
          "internalType": "address",
          "name": "sender",
          "type": "address"
        },
        {
          "internalType": "uint256",
          "name": "tokenId",
          "type": "uint256"
        },
        {
          "internalType": "address",
          "name": "owner",
          "type": "address"
        }
      ],
      "name": "ERC721IncorrectOwner",
      "type": "error"
    },
    {
      "inputs": [
        {
          "internalType": "address",
          "name": "operator",
          "type": "address"
        },
        {
          "internalType": "uint256",
          "name": "tokenId",
          "type": "uint256"
        }
      ],
      "name": "ERC721InsufficientApproval",
      "type": "error"
    },
    {
      "inputs": [
        {
          "internalType": "address",
          "name": "approver",
          "type": "address"
        }
      ],
      "name": "ERC721InvalidApprover",
      "type": "error"
    },
    {
      "inputs": [
        {
          "internalType": "address",
          "name": "operator",
          "type": "address"
        }
      ],
      "name": "ERC721InvalidOperator",
      "type": "error"
    },
    {
      "inputs": [
        {
          "internalType": "address",
          "name": "owner",
          "type": "address"
        }
      ],
      "name": "ERC721InvalidOwner",
      "type": "error"
    },
    {
      "inputs": [
        {
          "internalType": "address",
          "name": "receiver",
          "type": "address"
        }
      ],
      "name": "ERC721InvalidReceiver",
      "type": "error"
    },
    {
      "inputs": [
        {
          "internalType": "address",
          "name": "sender",
          "type": "address"
        }
      ],
      "name": "ERC721InvalidSender",
      "type": "error"
    },
    {
      "inputs": [
        {
          "internalType": "uint256",
          "name": "tokenId",
          "type": "uint256"
        }
      ],
      "name": "ERC721NonexistentToken",
      "type": "error"
    },
    {
      "inputs": [
        {
          "internalType": "address",
          "name": "owner",
          "type": "address"
        }
      ],
      "name": "OwnableInvalidOwner",
      "type": "error"
    },
    {
      "inputs": [
        {
          "internalType": "address",
          "name": "account",
          "type": "address"
        }
      ],
      "name": "OwnableUnauthorizedAccount",
      "type": "error"
    },
    {
      "anonymous": false,
      "inputs": [
        {
          "indexed": true,
          "internalType": "address",
          "name": "owner",
          "type": "address"
        },
        {
          "indexed": true,
          "internalType": "address",
          "name": "approved",
          "type": "address"
        },
        {
          "indexed": true,
          "internalType": "uint256",
          "name": "tokenId",
          "type": "uint256"
        }
      ],
      "name": "Approval",
      "type": "event"
    },
    {
      "anonymous": false,
      "inputs": [
        {
          "indexed": true,
          "internalType": "address",
          "name": "owner",
          "type": "address"
        },
        {
          "indexed": true,
          "internalType": "address",
          "name": "operator",
          "type": "address"
        },
        {
          "indexed": false,
          "internalType": "bool",
          "name": "approved",
          "type": "bool"
        }
      ],
      "name": "ApprovalForAll",
      "type": "event"
    },
    {
      "anonymous": false,
      "inputs": [
        {
          "indexed": true,
          "internalType": "address",
          "name": "previousOwner",
          "type": "address"
        },
        {
          "indexed": true,
          "internalType": "address",
          "name": "newOwner",
          "type": "address"
        }
      ],
      "name": "OwnershipTransferred",
      "type": "event"
    },
    {
      "anonymous": false,
      "inputs": [
        {
          "indexed": true,
          "internalType": "address",
          "name": "from",
          "type": "address"
        },
        {
          "indexed": true,
          "internalType": "address",
          "name": "to",
          "type": "address"
        },
        {
          "indexed": true,
          "internalType": "uint256",
          "name": "tokenId",
          "type": "uint256"
        }
      ],
      "name": "Transfer",
      "type": "event"
    },
    {
      "inputs": [
        {
          "internalType": "address",
          "name": "to",
          "type": "address"
        },
        {
          "internalType": "uint256",
          "name": "tokenId",
          "type": "uint256"
        }
      ],
      "name": "approve",
      "outputs": [],
      "stateMutability": "nonpayable",
      "type": "function"
    },
    {
      "inputs": [
        {
          "internalType": "address",
          "name": "owner",
          "type": "address"
        }
      ],
      "name": "balanceOf",
      "outputs": [
        {
          "internalType": "uint256",
          "name": "",
          "type": "uint256"
        }
      ],
      "stateMutability": "view",
      "type": "function"
    },
    {
      "inputs": [
        {
          "internalType": "uint256",
          "name": "tokenId",
          "type": "uint256"
        }
      ],
      "name": "burn",
      "outputs": [],
      "stateMutability": "nonpayable",
      "type": "function"
    },
    {
      "inputs": [
        {
          "internalType": "uint256",
          "name": "tokenId",
          "type": "uint256"
        }
      ],
      "name": "getApproved",
      "outputs": [
        {
          "internalType": "address",
          "name": "",
          "type": "address"
        }
      ],
      "stateMutability": "view",
      "type": "function"
    },
    {
      "inputs": [
        {
          "internalType": "address",
          "name": "owner",
          "type": "address"
        },
        {
          "internalType": "address",
          "name": "operator",
          "type": "address"
        }
      ],
      "name": "isApprovedForAll",
      "outputs": [
        {
          "internalType": "bool",
          "name": "",
          "type": "bool"
        }
      ],
      "stateMutability": "view",
      "type": "function"
    },
    {
      "inputs": [
        {
          "internalType": "address",
          "name": "to",
          "type": "address"
        }
      ],
      "name": "mint",
      "outputs": [
        {
          "internalType": "uint256",
          "name": "",
          "type": "uint256"
        }
      ],
      "stateMutability": "nonpayable",
      "type": "function"
    },
    {
      "inputs": [],
      "name": "name",
      "outputs": [
        {
          "internalType": "string",
          "name": "",
          "type": "string"
        }
      ],
      "stateMutability": "view",
      "type": "function"
    },
    {
      "inputs": [],
      "name": "nextId",
      "outputs": [
        {
          "internalType": "uint256",
          "name": "",
          "type": "uint256"
        }
      ],
      "stateMutability": "view",
      "type": "function"
    },
    {
      "inputs": [],
      "name": "owner",
      "outputs": [
        {
          "internalType": "address",
          "name": "",
          "type": "address"
        }
      ],
      "stateMutability": "view",
      "type": "function"
    },
    {
      "inputs": [
        {
          "internalType": "uint256",
          "name": "tokenId",
          "type": "uint256"
        }
      ],
      "name": "ownerOf",
      "outputs": [
        {
          "internalType": "address",
          "name": "",
          "type": "address"
        }
      ],
      "stateMutability": "view",
      "type": "function"
    },
    {
      "inputs": [],
      "name": "renounceOwnership",
      "outputs": [],
      "stateMutability": "nonpayable",
      "type": "function"
    },
    {
      "inputs": [
        {
          "internalType": "address",
          "name": "from",
          "type": "address"
        },
        {
          "internalType": "address",
          "name": "to",
          "type": "address"
        },
        {
          "internalType": "uint256",
          "name": "tokenId",
          "type": "uint256"
        }
      ],
      "name": "safeTransferFrom",
      "outputs": [],
      "stateMutability": "nonpayable",
      "type": "function"
    },
    {
      "inputs": [
        {
          "internalType": "address",
          "name": "from",
          "type": "address"
        },
        {
          "internalType": "address",
          "name": "to",
          "type": "address"
        },
        {
          "internalType": "uint256",
          "name": "tokenId",
          "type": "uint256"
        },
        {
          "internalType": "bytes",
          "name": "data",
          "type": "bytes"
        }
      ],
      "name": "safeTransferFrom",
      "outputs": [],
      "stateMutability": "nonpayable",
      "type": "function"
    },
    {
      "inputs": [
        {
          "internalType": "address",
          "name": "operator",
          "type": "address"
        },
        {
          "internalType": "bool",
          "name": "approved",
          "type": "bool"
        }
      ],
      "name": "setApprovalForAll",
      "outputs": [],
      "stateMutability": "nonpayable",
      "type": "function"
    },
    {
      "inputs": [
        {
          "internalType": "bytes4",
          "name": "interfaceId",
          "type": "bytes4"
        }
      ],
      "name": "supportsInterface",
      "outputs": [
        {
          "internalType": "bool",
          "name": "",
          "type": "bool"
        }
      ],
      "stateMutability": "view",
      "type": "function"
    },
    {
      "inputs": [],
      "name": "symbol",
      "outputs": [
        {
          "internalType": "string",
          "name": "",
          "type": "string"
        }
      ],
      "stateMutability": "view",
      "type": "function"
    },
    {
      "inputs": [
        {
          "internalType": "uint256",
          "name": "tokenId",
          "type": "uint256"
        }
      ],
      "name": "tokenURI",
      "outputs": [
        {
          "internalType": "string",
          "name": "",
          "type": "string"
        }
      ],
      "stateMutability": "view",
      "type": "function"
    },
    {
      "inputs": [
        {
          "internalType": "address",
          "name": "from",
          "type": "address"
        },
        {
          "internalType": "address",
          "name": "to",
          "type": "address"
        },
        {
          "internalType": "uint256",
          "name": "tokenId",
          "type": "uint256"
        }
      ],
      "name": "transferFrom",
      "outputs": [],
      "stateMutability": "nonpayable",
      "type": "function"
    },
    {
      "inputs": [
        {
          "internalType": "address",
          "name": "newOwner",
          "type": "address"
        }
      ],
      "name": "transferOwnership",
      "outputs": [],
      "stateMutability": "nonpayable",
      "type": "function"
    }
  ],
  "bytecode": "0x608060405234801561000f575f5ffd5b5060405161145d38038061145d83398101604081905261002e91610178565b3382825f61003c8382610261565b5060016100498282610261565b5050506001600160a01b03811661007957604051631e4fbdf760e01b81525f600482015260240160405180910390fd5b6100828161008a565b50505061031b565b600680546001600160a01b038381166001600160a01b0319831681179093556040519116919082907f8be0079c531659141344cd1fd0a4f28419497f9722a3daafe3b4186f6b6457e0905f90a35050565b634e487b7160e01b5f52604160045260245ffd5b5f82601f8301126100fe575f5ffd5b81516001600160401b03811115610117576101176100db565b604051601f8201601f19908116603f011681016001600160401b0381118282101715610145576101456100db565b60405281815283820160200185101561015c575f5ffd5b8160208501602083015e5f918101602001919091529392505050565b5f5f60408385031215610189575f5ffd5b82516001600160401b0381111561019e575f5ffd5b6101aa858286016100ef565b602085015190935090506001600160401b038111156101c7575f5ffd5b6101d3858286016100ef565b9150509250929050565b600181811c908216806101f157607f821691505b60208210810361020f57634e487b7160e01b5f52602260045260245ffd5b50919050565b601f82111561025c57805f5260205f20601f840160051c8101602085101561023a5750805b601f840160051c820191505b81811015610259575f8155600101610246565b50505b505050565b81516001600160401b0381111561027a5761027a6100db565b61028e8161028884546101dd565b84610215565b6020601f8211600181146102c0575f83156102a95750848201515b5f19600385901b1c1916600184901b178455610259565b5f84815260208120601f198516915b828110156102ef57878501518255602094850194600190920191016102cf565b508482101561030c57868401515f19600387901b60f8161c191681555b50505050600190811b01905550565b611135806103285f395ff3fe608060405234801561000f575f5ffd5b506004361061011c575f3560e01c80636a627842116100a9578063a22cb4651161006e578063a22cb46514610247578063b88d4fde1461025a578063c87b56dd1461026d578063e985e9c514610280578063f2fde38b14610293575f5ffd5b80636a6278421461020057806370a0823114610213578063715018a6146102265780638da5cb5b1461022e57806395d89b411461023f575f5ffd5b806323b872dd116100ef57806323b872dd1461019d57806342842e0e146101b057806342966c68146101c357806361b8ce8c146101d65780636352211e146101ed575f5ffd5b806301ffc9a71461012057806306fdde0314610148578063081812fc1461015d578063095ea7b314610188575b5f5ffd5b61013361012e366004610dc3565b6102a6565b60405190151581526020015b60405180910390f35b6101506102f7565b60405161013f9190610e0c565b61017061016b366004610e1e565b610386565b6040516001600160a01b03909116815260200161013f565b61019b610196366004610e4b565b6103ad565b005b61019b6101ab366004610e73565b6103bc565b61019b6101be366004610e73565b61044a565b61019b6101d1366004610e1e565b610469565b6101df60075481565b60405190815260200161013f565b6101706101fb366004610e1e565b6104ca565b6101df61020e366004610ead565b6104d4565b6101df610221366004610ead565b610505565b61019b61054a565b6006546001600160a01b0316610170565b61015061055d565b61019b610255366004610ec6565b61056c565b61019b610268366004610f13565b610577565b61015061027b366004610e1e565b61058f565b61013361028e366004610ff0565b610600565b61019b6102a1366004610ead565b61062d565b5f6001600160e01b031982166380ac58cd60e01b14806102d657506001600160e01b03198216635b5e139f60e01b145b806102f157506301ffc9a760e01b6001600160e01b03198316145b92915050565b60605f805461030590611021565b80601f016020809104026020016040519081016040528092919081815260200182805461033190611021565b801561037c5780601f106103535761010080835404028352916020019161037c565b820191905f5260205f20905b81548152906001019060200180831161035f57829003601f168201915b5050505050905090565b5f61039082610667565b505f828152600460205260409020546001600160a01b03166102f1565b6103b882823361069f565b5050565b6001600160a01b0382166103ea57604051633250574960e11b81525f60048201526024015b60405180910390fd5b5f6103f68383336106ac565b9050836001600160a01b0316816001600160a01b031614610444576040516364283d7b60e01b81526001600160a01b03808616600483015260248201849052821660448201526064016103e1565b50505050565b61046483838360405180602001604052805f815250610577565b505050565b610472816104ca565b6001600160a01b0316336001600160a01b0316146104be5760405162461bcd60e51b81526020600482015260096024820152683737ba1037bbb732b960b91b60448201526064016103e1565b6104c78161079e565b50565b5f6102f182610667565b5f6104dd6107d6565b600780545f91826104ed83611059565b9190505590506104fd8382610803565b90505b919050565b5f6001600160a01b03821661052f576040516322718ad960e21b81525f60048201526024016103e1565b506001600160a01b03165f9081526003602052604090205490565b6105526107d6565b61055b5f610864565b565b60606001805461030590611021565b6103b83383836108b5565b6105828484846103bc565b6104443385858585610953565b606061059a82610667565b505f6105b060408051602081019091525f815290565b90505f8151116105ce5760405180602001604052805f8152506105f9565b806105d884610a7b565b6040516020016105e9929190611094565b6040516020818303038152906040525b9392505050565b6001600160a01b039182165f90815260056020908152604080832093909416825291909152205460ff1690565b6106356107d6565b6001600160a01b03811661065e57604051631e4fbdf760e01b81525f60048201526024016103e1565b6104c781610864565b5f818152600260205260408120546001600160a01b0316806104fd57604051637e27328960e01b8152600481018490526024016103e1565b6104648383836001610b0b565b5f828152600260205260408120546001600160a01b03908116908316156106d8576106d8818486610c0f565b6001600160a01b03811615610712576106f35f855f5f610b0b565b6001600160a01b0381165f90815260036020526040902080545f190190555b6001600160a01b03851615610740576001600160a01b0385165f908152600360205260409020805460010190555b5f8481526002602052604080822080546001600160a01b0319166001600160a01b0389811691821790925591518793918516917fddf252ad1be2c89b69c2b068fc378daa952ba7f163c4a11628f55a4df523b3ef91a4949350505050565b5f6107aa5f835f6106ac565b90506001600160a01b0381166103b857604051637e27328960e01b8152600481018390526024016103e1565b6006546001600160a01b0316331461055b5760405163118cdaa760e01b81523360048201526024016103e1565b6001600160a01b03821661082c57604051633250574960e11b81525f60048201526024016103e1565b5f61083883835f6106ac565b90506001600160a01b03811615610464576040516339e3563760e11b81525f60048201526024016103e1565b600680546001600160a01b038381166001600160a01b0319831681179093556040519116919082907f8be0079c531659141344cd1fd0a4f28419497f9722a3daafe3b4186f6b6457e0905f90a35050565b6001600160a01b0382166108e757604051630b61174360e31b81526001600160a01b03831660048201526024016103e1565b6001600160a01b038381165f81815260056020908152604080832094871680845294825291829020805460ff191686151590811790915591519182527f17307eab39ab6107e8899845ad3d59bd9653f200f220920489ca2b5937696c31910160405180910390a3505050565b6001600160a01b0383163b15610a7457604051630a85bd0160e11b81526001600160a01b0384169063150b7a02906109959088908890879087906004016110a8565b6020604051808303815f875af19250505080156109cf575060408051601f3d908101601f191682019092526109cc918101906110e4565b60015b610a36573d8080156109fc576040519150601f19603f3d011682016040523d82523d5f602084013e610a01565b606091505b5080515f03610a2e57604051633250574960e11b81526001600160a01b03851660048201526024016103e1565b805160208201fd5b6001600160e01b03198116630a85bd0160e11b14610a7257604051633250574960e11b81526001600160a01b03851660048201526024016103e1565b505b5050505050565b60605f610a8783610c73565b60010190505f8167ffffffffffffffff811115610aa657610aa6610eff565b6040519080825280601f01601f191660200182016040528015610ad0576020820181803683370190505b5090508181016020015b5f19016f181899199a1a9b1b9c1cb0b131b232b360811b600a86061a8153600a8504945084610ada57509392505050565b8080610b1f57506001600160a01b03821615155b15610be0575f610b2e84610667565b90506001600160a01b03831615801590610b5a5750826001600160a01b0316816001600160a01b031614155b8015610b6d5750610b6b8184610600565b155b15610b965760405163a9fbf51f60e01b81526001600160a01b03841660048201526024016103e1565b8115610bde5783856001600160a01b0316826001600160a01b03167f8c5be1e5ebec7d5bd14f71427d1e84f3dd0314c0f7b2291e5b200ac8c7c3b92560405160405180910390a45b505b50505f90815260046020526040902080546001600160a01b0319166001600160a01b0392909216919091179055565b610c1a838383610d4a565b610464576001600160a01b038316610c4857604051637e27328960e01b8152600481018290526024016103e1565b60405163177e802f60e01b81526001600160a01b0383166004820152602481018290526044016103e1565b5f8072184f03e93ff9f4daa797ed6e38ed64bf6a1f0160401b8310610cb15772184f03e93ff9f4daa797ed6e38ed64bf6a1f0160401b830492506040015b6d04ee2d6d415b85acef81000000008310610cdd576d04ee2d6d415b85acef8100000000830492506020015b662386f26fc100008310610cfb57662386f26fc10000830492506010015b6305f5e1008310610d13576305f5e100830492506008015b6127108310610d2757612710830492506004015b60648310610d39576064830492506002015b600a83106104fd5760010192915050565b5f6001600160a01b03831615801590610da65750826001600160a01b0316846001600160a01b03161480610d835750610d838484610600565b80610da657505f828152600460205260409020546001600160a01b038481169116145b949350505050565b6001600160e01b0319811681146104c7575f5ffd5b5f60208284031215610dd3575f5ffd5b81356105f981610dae565b5f81518084528060208401602086015e5f602082860101526020601f19601f83011685010191505092915050565b602081525f6105f96020830184610dde565b5f60208284031215610e2e575f5ffd5b5035919050565b80356001600160a01b0381168114610500575f5ffd5b5f5f60408385031215610e5c575f5ffd5b610e6583610e35565b946020939093013593505050565b5f5f5f60608486031215610e85575f5ffd5b610e8e84610e35565b9250610e9c60208501610e35565b929592945050506040919091013590565b5f60208284031215610ebd575f5ffd5b6105f982610e35565b5f5f60408385031215610ed7575f5ffd5b610ee083610e35565b915060208301358015158114610ef4575f5ffd5b809150509250929050565b634e487b7160e01b5f52604160045260245ffd5b5f5f5f5f60808587031215610f26575f5ffd5b610f2f85610e35565b9350610f3d60208601610e35565b925060408501359150606085013567ffffffffffffffff811115610f5f575f5ffd5b8501601f81018713610f6f575f5ffd5b803567ffffffffffffffff811115610f8957610f89610eff565b604051601f8201601f19908116603f0116810167ffffffffffffffff81118282101715610fb857610fb8610eff565b604052818152828201602001891015610fcf575f5ffd5b816020840160208301375f6020838301015280935050505092959194509250565b5f5f60408385031215611001575f5ffd5b61100a83610e35565b915061101860208401610e35565b90509250929050565b600181811c9082168061103557607f821691505b60208210810361105357634e487b7160e01b5f52602260045260245ffd5b50919050565b5f6001820161107657634e487b7160e01b5f52601160045260245ffd5b5060010190565b5f81518060208401855e5f93019283525090919050565b5f610da66110a2838661107d565b8461107d565b6001600160a01b03858116825284166020820152604081018390526080606082018190525f906110da90830184610dde565b9695505050505050565b5f602082840312156110f4575f5ffd5b81516105f981610dae56fea26469706673582212209048f9b643b7532dd51d18c2aeb75d14fd34b91ba11dc06d4ea3f4a2c052eb1064736f6c634300081c0033",
  "linkReferences": {},
  "deployedLinkReferences": {},
  "immutableReferences": {},
  "inputSourceName": "project/contracts/MxNFT.sol",
  "buildInfoId": "solc-0_8_28-66fb80c4ca8e7a5a076e82a274194a679310715d"
}